{
  "contractName": "RealEstate",
  "abi": [
    {
      "inputs": [],
      "payable": false,
      "stateMutability": "nonpayable",
      "type": "constructor"
    },
    {
      "anonymous": false,
      "inputs": [
        {
          "indexed": false,
          "internalType": "address",
          "name": "_buyer",
          "type": "address"
        },
        {
          "indexed": false,
          "internalType": "uint256",
          "name": "_id",
          "type": "uint256"
        }
      ],
      "name": "LogBuyRealEstate",
      "type": "event"
    },
    {
      "constant": true,
      "inputs": [
        {
          "internalType": "uint256",
          "name": "",
          "type": "uint256"
        }
      ],
      "name": "buyerInfo",
      "outputs": [
        {
          "internalType": "address",
          "name": "buyerAddress",
          "type": "address"
        },
        {
          "internalType": "bytes32",
          "name": "name",
          "type": "bytes32"
        },
        {
          "internalType": "uint256",
          "name": "age",
          "type": "uint256"
        }
      ],
      "payable": false,
      "stateMutability": "view",
      "type": "function"
    },
    {
      "constant": true,
      "inputs": [
        {
          "internalType": "uint256",
          "name": "",
          "type": "uint256"
        }
      ],
      "name": "buyers",
      "outputs": [
        {
          "internalType": "address",
          "name": "",
          "type": "address"
        }
      ],
      "payable": false,
      "stateMutability": "view",
      "type": "function"
    },
    {
      "constant": true,
      "inputs": [],
      "name": "owner",
      "outputs": [
        {
          "internalType": "address payable",
          "name": "",
          "type": "address"
        }
      ],
      "payable": false,
      "stateMutability": "view",
      "type": "function"
    },
    {
      "constant": false,
      "inputs": [
        {
          "internalType": "uint256",
          "name": "_id",
          "type": "uint256"
        },
        {
          "internalType": "bytes32",
          "name": "_name",
          "type": "bytes32"
        },
        {
          "internalType": "uint256",
          "name": "_age",
          "type": "uint256"
        }
      ],
      "name": "buyRealEstate",
      "outputs": [],
      "payable": true,
      "stateMutability": "payable",
      "type": "function"
    },
    {
      "constant": true,
      "inputs": [
        {
          "internalType": "uint256",
          "name": "_id",
          "type": "uint256"
        }
      ],
      "name": "getBuyerInfo",
      "outputs": [
        {
          "internalType": "address",
          "name": "",
          "type": "address"
        },
        {
          "internalType": "bytes32",
          "name": "",
          "type": "bytes32"
        },
        {
          "internalType": "uint256",
          "name": "",
          "type": "uint256"
        }
      ],
      "payable": false,
      "stateMutability": "view",
      "type": "function"
    },
    {
      "constant": true,
      "inputs": [],
      "name": "getAllBuyers",
      "outputs": [
        {
          "internalType": "address[10]",
          "name": "",
          "type": "address[10]"
        }
      ],
      "payable": false,
      "stateMutability": "view",
      "type": "function"
    }
  ],
  "bytecode": "0x608060405234801561001057600080fd5b5033600160006101000a81548173ffffffffffffffffffffffffffffffffffffffff021916908373ffffffffffffffffffffffffffffffffffffffff160217905550610703806100616000396000f3fe6080604052600436106100555760003560e01c806332d0c15f1461005a5780635aee87031461009c57806386cba22b146101255780638da5cb5b14610178578063e377e966146101cf578063f2aa821814610258575b600080fd5b61009a6004803603606081101561007057600080fd5b810190808035906020019092919080359060200190929190803590602001909291905050506102d3565b005b3480156100a857600080fd5b506100d5600480360360208110156100bf57600080fd5b810190808035906020019092919050505061049a565b604051808473ffffffffffffffffffffffffffffffffffffffff1673ffffffffffffffffffffffffffffffffffffffff168152602001838152602001828152602001935050505060405180910390f35b34801561013157600080fd5b5061013a61054d565b6040518082600a60200280838360005b8381101561016557808201518184015260208101905061014a565b5050505090500191505060405180910390f35b34801561018457600080fd5b5061018d6105ce565b604051808273ffffffffffffffffffffffffffffffffffffffff1673ffffffffffffffffffffffffffffffffffffffff16815260200191505060405180910390f35b3480156101db57600080fd5b50610208600480360360208110156101f257600080fd5b81019080803590602001909291905050506105f4565b604051808473ffffffffffffffffffffffffffffffffffffffff1673ffffffffffffffffffffffffffffffffffffffff168152602001838152602001828152602001935050505060405180910390f35b34801561026457600080fd5b506102916004803603602081101561027b57600080fd5b810190808035906020019092919050505061063e565b604051808273ffffffffffffffffffffffffffffffffffffffff1673ffffffffffffffffffffffffffffffffffffffff16815260200191505060405180910390f35b33600284600a81106102e157fe5b0160006101000a81548173ffffffffffffffffffffffffffffffffffffffff021916908373ffffffffffffffffffffffffffffffffffffffff16021790555060405180606001604052803373ffffffffffffffffffffffffffffffffffffffff1681526020018381526020018281525060008085815260200190815260200160002060008201518160000160006101000a81548173ffffffffffffffffffffffffffffffffffffffff021916908373ffffffffffffffffffffffffffffffffffffffff1602179055506020820151816001015560408201518160020155905050600160009054906101000a900473ffffffffffffffffffffffffffffffffffffffff1673ffffffffffffffffffffffffffffffffffffffff166108fc349081150290604051600060405180830381858888f19350505050158015610429573d6000803e3d6000fd5b507f0868a2b77ef5243ab424f87952a349bc823a92fd01d9b45d2fec78b8eafb586b3384604051808373ffffffffffffffffffffffffffffffffffffffff1673ffffffffffffffffffffffffffffffffffffffff1681526020018281526020019250505060405180910390a1505050565b60008060006104a7610671565b6000808681526020019081526020016000206040518060600160405290816000820160009054906101000a900473ffffffffffffffffffffffffffffffffffffffff1673ffffffffffffffffffffffffffffffffffffffff1673ffffffffffffffffffffffffffffffffffffffff168152602001600182015481526020016002820154815250509050806000015181602001518260400151935093509350509193909250565b6105556106ab565b6002600a806020026040519081016040528092919082600a80156105c4576020028201915b8160009054906101000a900473ffffffffffffffffffffffffffffffffffffffff1673ffffffffffffffffffffffffffffffffffffffff168152602001906001019080831161057a575b5050505050905090565b600160009054906101000a900473ffffffffffffffffffffffffffffffffffffffff1681565b60006020528060005260406000206000915090508060000160009054906101000a900473ffffffffffffffffffffffffffffffffffffffff16908060010154908060020154905083565b600281600a811061064b57fe5b016000915054906101000a900473ffffffffffffffffffffffffffffffffffffffff1681565b6040518060600160405280600073ffffffffffffffffffffffffffffffffffffffff16815260200160008019168152602001600081525090565b604051806101400160405280600a9060208202803883398082019150509050509056fea265627a7a72315820bc59eae71f9a9ffa3b49aae6eec29f0bbffc15dce09e3ab29e727b4c9243151f64736f6c63430005100032",
  "source": "pragma solidity >=0.4.21 <0.7.0;\n\ncontract RealEstate {\n    struct Buyer {\n        address buyerAddress;\n        bytes32 name;\n        uint age;\n    }\n\n    mapping (uint => Buyer) public buyerInfo;\n    address payable public owner;\n    address[10] public buyers;\n\n    event LogBuyRealEstate(\n        address _buyer,\n        uint _id\n    );\n\n    constructor() public {\n        owner = msg.sender;\n    }\n\n    function buyRealEstate(uint _id, bytes32 _name, uint _age) public payable {\n        buyers[_id] = msg.sender;\n        buyerInfo[_id] = Buyer(msg.sender, _name, _age);\n\n        owner.transfer(msg.value);\n        emit LogBuyRealEstate(msg.sender, _id);\n    }\n\n    function getBuyerInfo(uint _id) public view returns (address, bytes32, uint) {\n        Buyer memory buyer = buyerInfo[_id];\n        return (buyer.buyerAddress, buyer.name, buyer.age);\n    }\n\n    function getAllBuyers() public view returns (address[10] memory) {\n        return buyers;\n    }\n}\n",
  "sourcePath": "C:\\Users\\myr10\\OneDrive\\바탕 화면\\0124\\contracts\\RealEstate.sol",
  "compiler": {
    "name": "solc",
    "version": "0.5.16+commit.9c3226ce.Emscripten.clang"
  },
  "schemaVersion": "3.0.23",
  "updatedAt": "2020-03-03T08:44:56.693Z",
  "networkType": "ethereum",
  "devdoc": {
    "methods": {}
  },
  "userdoc": {
    "methods": {}
  }
}